:020000040800F2
:1000000000000220ED3900082D0800082F08000824
:100010003108000833080008350800080000000017
:100020000000000000000000000000003708000889
:1000300039080008000000003B0800083D080008DF
:100040003D3A00083D3A00083D3A00083D3A0008B4
:100050003D3A00083D3A00083D3A00083D3A0008A4
:10006000450800083D3A00083D3A00083D3A0008BE
:100070003D3A00083D3A00083D3A00083D3A000884
:100080003D3A00083D3A00083D3A00083D3A000874
:100090003D3A00083D3A00083D3A00083D3A000864
:1000A0003D3A00083D3A00083D3A00083D3A000854
:1000B000510800083D3A00083D3A00083D3A000862
:1000C0003D3A00083D3A00083D3A00083D3A000834
:1000D0003D3A0008D10800083D3A00083D3A0008C2
:1000E0003D3A00083D3A00083D3A00083D3A000814
:1000F0003D3A00083D3A00083D3A00083D3A000804
:100100003D3A00083D3A00083D3A00083D3A0008F3
:100110003D3A00083D3A00083D3A00083D3A0008E3
:100120003D3A00083D3A0008610800083D3A0008E1
:100130003D3A00083D3A00083D3A00083D3A0008C3
:100140003D3A00083D3A00083D3A00083D3A0008B3
:100150003D3A00083D3A0008710800083D3A0008A1
:100160003D3A00083D3A00083D3A00083D3A000893
:100170003D3A00083D3A00083D3A00080000000002
:080180003D3A00083D3A000879
:1001880010B5054C237833B9044B13B10448AFF3C9
:1001980000800123237010BD5404002000000000DB
:1001A8000C3C000808B5034B1BB103490348AFF3E7
:1001B800008008BD00000000580400200C3C000826
:1001C80053B94AB9002908BF00281CBF4FF0FF31B6
:1001D8004FF0FF3000F074B9ADF1080C6DE904CEB2
:1001E80000F006F8DDF804E0DDE9022304B070470A
:1001F8002DE9F047089E0D4604468846002B4DD150
:100208008A42944668D9B2FA82F252B101FA02F3EC
:10021800C2F1200120FA01F10CFA02FC41EA0308BC
:1002280094404FEA1C45210CB8FBF5FE1FFA8CF7E9
:1002380005FB1E8341EA03430EFB07F199420BD9E4
:100248001CEB03030EF1FF3080F01E81994240F24F
:100258001B81AEF1020E63445B1AA4B2B3FBF5F046
:1002680005FB103344EA034400FB07F7A7420AD909
:100278001CEB040400F1FF3380F00881A74240F230
:10028800058164440238E41B40EA0E4000211EB197
:10029800D4400023C6E90043BDE8F0878B4208D963
:1002A800002E00F0EE800021C6E900050846BDE8F2
:1002B800F087B3FA83F100294AD1AB4202D38242D4
:1002C80000F2F980841A65EB030301209846002E9A
:1002D800E2D0C6E90048DFE702B9FFDEB2FA82F2EF
:1002E800002A40F09180A1EB0C054FEA1C471FFA49
:1002F8008CFE0121B5FBF7F307FB1350250C45EAEB
:1003080000450EFB03F0A84208D91CEB050503F1D4
:10031800FF3802D2A84200F2CB8043462D1AA4B27D
:10032800B5FBF7F007FB105544EA05440EFB00FE49
:10033800A64508D91CEB040400F1FF3502D2A645F6
:1003480000F2BB802846A4EB0E0440EA03409EE777
:10035800C1F120078B4022FA07FC4CEA030C20FA73
:1003680007F405FA01F31C43FD404FEA1C4900FA63
:1003780001F3B5FBF9F8200C1FFA8CFE09FB1855A0
:1003880040EA054508FB0EF0A84202FA01F20BD933
:100398001CEB050508F1FF3A80F08880A84240F27E
:1003A8008580A8F1020865442D1AA4B2B5FBF9F0BE
:1003B80009FB105544EA054500FB0EFEAE4508D979
:1003C8001CEB050500F1FF346CD2AE456AD9023842
:1003D800654440EA0840A0FB0294A5EB0E05A5423F
:1003E800C846A64656D353D05EB1B3EB080265EBB8
:1003F8000E0505FA07F722FA01F3CD401F43C6E9B7
:1004080000750021BDE8F087C2F1200320FA03F14E
:100418000CFA02FC25FA03F395400D434FEA1C47FA
:100428001FFA8CFEB3FBF7F107FB11302B0C43EAE4
:10043800004301FB0EF0984204FA02F408D91CEBC1
:10044800030301F1FF382FD298422DD902396344B2
:100458001B1AADB2B3FBF7F007FB103345EA0345AF
:1004680000FB0EF3AB4208D91CEB050500F1FF3881
:1004780016D2AB4214D902386544ED1A40EA01415C
:1004880038E73146304607E78646E5E61846FAE695
:100498004B45A9D2B9EB020864EB0C0E0138A3E76F
:1004A8004046EAE7204694E74146D1E7D0467BE755
:1004B800023B654432E7084609E76444023842E7EC
:1004C800704700BF10B582B0002401940D4B1A6B21
:1004D80042F480021A631B6B03F480030193019BAF
:1004E800224621463A2000F0F7FB3A2000F02CFC87
:1004F80022462146462000F0EFFB462000F024FC6F
:1005080002B010BD0038024070B58AB000240594CE
:1005180006940794089409940194274B1A6B42F0A7
:1005280010021A631A6B02F010020192019A0294E7
:100538001A6B42F020021A631A6B02F02002029230
:10054800029A03941A6B42F080021A631A6B02F043
:1005580080020392039A04941A6B42F001021A6310
:100568001B6B03F001030493049B144D01224FF409
:100578008061284600F067FF042305934FF40413B5
:1005880006930126079605A90D4800F063FE4FF46F
:1005980080630593069607940223089305A92846C5
:1005A80000F058FE22460521082000F095FB08209F
:1005B80000F0CAFB0AB070BD0038024000140240C7
:1005C80000100240042800D0704770B582B0274C54
:1005D800204601F097FB236800225A6218E0019B2D
:1005E800634400995B1A1A44009B019390420BD90B
:1005F8004FF0E0239B6900930199009B9942EED349
:10060800019B00995B1AEEE7194A136801331360DE
:100618000421184800F010FF90B94FF0E0239A69C0
:1006280000925B6903F1010C40F2E73003FB000024
:10063800114BA3FB00308009009B01930022D7E7F0
:100648000E4C26680A4D286802F09EFB0C4B43F8B6
:100658002600206802F09FFB206002F0A3FB0348FD
:1006680001F00CFB00232B6002B070BDC005002018
:100678007405002000100240D34D62107005002060
:10068800000000200E4B834200D0704710B51C4676
:10069800184601F037FB226800235362094A1360A9
:1006A800094802F0E7FD094C207002F09FFD012285
:1006B8002146074801F0EEFF204602F08DFB10BDF1
:1006C800C005002070050020000000206F050020F4
:1006D800C806002072B6FEE700B595B030220021AA
:1006E80008A803F0CDF90023039304930593069318
:1006F80007930193204A116C41F080511164126CE8
:1007080002F080520192019A02931C4B1A6842F43B
:1007180080421A601B6803F480430293029B012302
:1007280008934FF48033099302220E924FF480030A
:100738000F9304231093A82111911292139308A8E0
:1007480000F09EFE98B90F2303930223049300231D
:1007580005934FF4A05306934FF480530793052154
:1007680003A801F0F3F820B915B05DF804FBFFF712
:10077800B1FFFFF7AFFF00BF003802400070004034
:1007880010B500F057FAFFF7A7FFFFF7BDFEFFF718
:1007980099FE00F0BBF800F051F900F08BF9114B0D
:1007A8001A68D36843F01003D36004E0FF220021E5
:1007B8000D4803F065F9FF220B490A4802F0C8FA10
:1007C8000024094B1B5D002BF0D00748204402F0A1
:1007D80019FB02F017FD4FF47A7000F057FA013454
:1007E800EFE700BFC80600207004002082B0002197
:1007F80000910B4B5A6C42F480425A645A6C02F4D2
:1008080080420092009A01911A6C42F080521A6458
:100818001B6C03F080530193019B02B0704700BF2B
:1008280000380240FEE7FEE7FEE7FEE7FEE7704716
:100838007047704708B500F017FA08BD08B50420DE
:1008480000F010FE08BD000008B5024801F078FA73
:1008580008BD00BFC005002008B5024800F00CFC28
:1008680008BD00BF0806002008B5024800F004FCD7
:1008780008BD00BF6806002008B5044B834200D0BD
:1008880008BD184601F054FFFAE700BFC80600206B
:1008980003681A6812F0100F12D000B583B0002256
:1008A80001921A6801925B680193019B054B98427B
:1008B80002D003B05DF804FB1846FFF7DDFFF8E748
:1008C800704700BFC806002010B5044C204602F04F
:1008D80053F82046FFF7DCFF10BD00BFC806002014
:1008E80008B5064B1B681968054A8A4300D008BD3D
:1008F800044A1A6002F07AFCF9E700BFC806002033
:1009080040000010BFFFFFEF7047000000B587B040
:1009180000230293039304930593009301931648CD
:100928004FF08042026042F2CF024260836042F29E
:100938000F72C2600361836101F024FB90B94FF428
:100948008053029302A90C4801F026FC68B90023E1
:10095800009301936946084801F02EFD40B907B09D
:100968005DF804FBFFF7B6FEE9E7FFF7B3FEEEE735
:10097800FFF7B0FEF3E700BFC005002000B583B065
:100988000368B3F1804F05D0134A934217D003B0E0
:100998005DF804FB0022009203F50E33196C41F058
:1009A800010119641B6C03F001030093009B0621ED
:1009B8001C2000F091F91C2000F0C6F9E7E700239D
:1009C8000193064B1A6C42F480721A641B6C03F490
:1009D80080730193019BDAE7002000400038024051
:1009E80000B587B000230193029303930493059302
:1009F80002680F4B9A4202D007B05DF804FB00234F
:100A080000930C4B1A6B42F020021A631B6B03F025
:100A180020030093009B4FF4007301930223029379
:100A28000923059301A9044800F014FCE4E700BF7A
:100A380000200040003802400014024000B589B090
:100A4800002301930293039304930593069307935A
:100A58001648174A026053224260836040F2E73228
:100A6800C2600361836101F08DFAA8B90F4801F0F3
:100A7800B5FAA0B9602301930022029202230393DE
:100A8800059201A9094801F00DFB58B90748FFF77D
:100A9800A7FF09B05DF804FBFFF71CFEE6E7FFF7C8
:100AA80019FEE7E7FFF716FEF0E700BF780500201C
:100AB8000020004008B50A480A4B03604FF4E133B0
:100AC800436000238360C36003610C224261836139
:100AD800C36101F0AFFD00B908BDFFF7FBFDFBE7FF
:100AE800C80600200010014030B589B000230393E8
:100AF8000493059306930793026803F1804303F573
:100B080088339A4201D009B030BD044600250195CA
:100B180003F594335A6C42F010025A645A6C02F08E
:100B280010020192019A02951A6B42F001021A63AF
:100B38001B6B03F001030293029B4FF4C063039302
:100B480002230493032306930723079303A9214849
:100B580000F080FB2048214B03604FF000634360A6
:100B68008560C5604FF480630361456185614FF41A
:100B78008073C3610562456200F086F918BB164BA5
:100B8800A3639C631648174B03604FF000634360F0
:100B9800402383600023C3604FF480620261436195
:100BA8008361C3610362436200F06EF970B90C4B54
:100BB80063639C6300220721252000F08DF825201F
:100BC80000F0C2F89FE7FFF785FDD8E7FFF782FD41
:100BD800EDE700BF00000240080600204064024024
:100BE80068060020B864024010B504460E4B187819
:100BF8004FF47A73B3FBF0F30C4A1068B0FBF3F0D0
:100C080000F0B0F868B90F2C01D901200AE00022E1
:100C180021464FF0FF3000F05FF8054B1C600020C4
:100C280000E0012010BD00BF1C00002018000020BB
:100C38002000002008B50B4B1A6842F400721A60B5
:100C48001A6842F480621A601A6842F480721A6064
:100C5800032000F02FF80F20FFF7C6FFFFF7C6FDAF
:100C6800002008BD003C0240034A1168034B1B7872
:100C78000B441360704700BF0C0700201C000020C5
:100C8800014B1868704700BF0C07002038B50446B0
:100C9800FFF7F6FF0546B4F1FF3F02D0044B1B787F
:100CA8001C44FFF7EDFF401BA042FAD338BD00BF3C
:100CB8001C000020074AD36823F4E0631B041B0CC4
:100CC800000200F4E060034343F0BF6343F40033E1
:100CD800D360704700ED00E000B5194BDB68C3F343
:100CE8000223C3F1070CBCF1040F28BF4FF0040C1A
:100CF80003F1040EBEF1060F18D9033B4FF0FF3E77
:100D08000EFA0CFC21EA0C0199400EFA03F322EAD0
:100D18000303194300280BDB0901C9B200F1604045
:100D280000F5614080F800135DF804FB0023E5E757
:100D380000F00F000901C9B2024B1954F4E700BFD3
:100D480000ED00E014ED00E0002807DB00F01F02D2
:100D5800400901239340024A42F82030704700BFFF
:100D680000E100E00138B0F1807F0BD24FF0E023C2
:100D78005861054AF02182F8231000209861072263
:100D88001A6170470120704700ED00E030B4056833
:100D98002C6824F480242C60046863608368402BEA
:100DA80005D0036899600368DA6030BC704703684F
:100DB8009A600368D960F8E710B40368D9B21039AB
:100DC8000B4AA2FB014212090A4CA25CC2655F29C8
:100DD80008D923F47F7323F0030304338365806DFC
:100DE80010BC704723F47F7323F003038365F6E791
:100DF800ABAAAAAA3C3C0008836A826992B9012B73
:100E08000AD0022B02D00BB100207047C36A13F03E
:100E1800807F28D100207047C36AB3F1C07F24D0F7
:100E280000207047B2F5005F09D0022B25D9032BAB
:100E380025D1C36A13F0807F23D100207047032B8C
:100E480003D8DFE803F01404140A00207047C36ACB
:100E580013F0807F0DD100207047C36AB3F1C07FC3
:100E680009D00020704701207047012070470120F9
:100E7800704701207047012070470120704700200B
:100E8800704701207047000070B50446FFF7F8FE70
:100E9800002C5BD00546022384F83530002384F803
:100EA80034302268136823F00103136023681A683A
:100EB80012F0010F0AD0FFF7E3FE431B052BF5D90B
:100EC80020236365032084F8350070BD1A68204824
:100ED80010406168A2680A43E1680A4321690A432D
:100EE80061690A43A1690A43E1690A43216A0A431D
:100EF8000243616A04291ED01A602668756925F0C4
:100F08000705636A1D43042B07D1A36A1D43E36ADF
:100F18001BB12046FFF770FF90B975612046FFF7B7
:100F28004BFFE26D3F2393408360002060650123FF
:100F380084F83530C9E7E16A206B01430A43DBE7EF
:100F480040236365012084F83500BEE70120BCE733
:100F58003F8010F038B50446856D90F834000128BC
:100F68002BD0012084F8340094F83500C0B2012851
:100F780004D0002384F83430022038BD022084F8DD
:100F88003500002060652046FFF700FFE26D3F2333
:100F98009340AB602268136843F016031360236C18
:100FA80023B12268136843F00803136022681368AA
:100FB80043F0010313600020DFE70220DDE770B58E
:100FC8000446866DFFF75CFE94F83530DBB2022BE1
:100FD80006D080236365002384F83430012070BD77
:100FE80005462268136823F01603136022685369C4
:100FF80023F080035361236CE3B12268136823F064
:10100800080313602268136823F001031360236840
:101018001B6813F0010F11D0FFF732FE431B052B9D
:10102800F5D920236365032084F83500002384F86C
:101038003430D4E7A36C002BDFD1E3E7E26D3F2324
:101048009340B360012384F83530002084F83400DD
:10105800C5E790F83530DBB2022B03D08023436517
:1010680001207047052380F835300268136823F0A3
:101078000103136000207047F0B583B004460023D5
:101088000193724B1D68724BA3FB0535AD0A876D42
:101098003E68C26D08239340334210D003681A6833
:1010A80012F0040F0BD01A6822F004021A60C26D05
:1010B80008239340BB60436D43F001034365E26D31
:1010C80001239340334209D02268526912F0800FFD
:1010D80004D0BB60636D43F002036365E26D0423D3
:1010E8009340334209D02268126812F0020F04D0EC
:1010F800BB60636D43F004036365E26D10239340A6
:10110800334224D02268126812F0080F1FD0BB6047
:1011180023681A6812F4802F0DD01B6813F4002F6F
:1011280004D1236C9BB12046984710E0A36C73B19F
:10113800204698470BE01A6812F4807F03D11A689A
:1011480022F008021A60236C0BB120469847E26D22
:1011580020239340334255D02268126812F0100FB2
:1011680050D0BB6094F83530DBB2052B0ED0236825
:101178001A6812F4802F33D01B6813F4002F2AD179
:10118800636C002B3ED0204698473BE022681368EA
:1011980023F0160313602268536923F08003536118
:1011A800236CA3B12268136823F008031360E26D6F
:1011B8003F239340BB60012384F83530002384F833
:1011C8003430236D002B3FD0204698473CE0A36C79
:1011D800002BE7D1EBE7E36BA3B12046984711E07A
:1011E8001A6812F4807F09D11A6822F010021A6076
:1011F800012384F83530002384F83430E36B0BB1D5
:1012080020469847636DFBB1636D13F0010F17D04B
:10121800052384F835302268136823F0010313602E
:10122800019B01330193AB4204D823681B6813F078
:10123800010FF5D1012384F83530002384F83430C8
:10124800E36C0BB12046984703B0F0BD18000020AE
:10125800B5814E1B00230F2B00F2E48070B582B0DD
:1012680060E085685E000324B44025EA0405CC6884
:10127800B4402C438460456825EA02054C68C4F3F1
:1012880000129A402A4342605AE0DC08083450F8B9
:10129800246003F0070295000F22AA4026EA020EF6
:1012A8000A69AA4042EA0E0240F824205CE00722BC
:1012B80000E0002202FA0EF22A4302345A4D45F8A1
:1012C80024205A4A94686FEA0C0224EA0C054E68F6
:1012D80016F4801F01D04CEA0405544CA560E4685C
:1012E80002EA04054E6816F4001F01D04CEA040512
:1012F8004E4CE560646802EA04054E6816F4003F47
:1013080001D04CEA0405494C6560246822404D68C8
:1013180015F4803F01D04CEA0402444C22600133AA
:101328000F2B7DD801229A400C6804EA020C32EA9D
:101338000404F4D14C6804F00304013C012C90D956
:101348004A6802F00302032A09D0C4685D00032238
:10135800AA4024EA02048A68AA402243C2604A6872
:1013680002F00302022A90D004684FEA430E0322D7
:1013780002FA0EF224EA02044A6802F0030202FAB0
:101388000EF2224302604A6812F4403FC7D000229E
:101398000192274A546C44F480445464526C02F419
:1013A80080420192019A9C08A51C1F4A52F82550B8
:1013B80003F003024FEA820E0F2202FA0EF225EA28
:1013C80002051C4A90423FF474AF02F580629042D5
:1013D8001AD002F58062904218D002F580629042DD
:1013E80016D002F58062904214D002F580629042D5
:1013F80012D002F58062904210D002F580629042CD
:101408003FF455AF082255E7012253E7022251E77E
:1014180003224FE704224DE705224BE7062249E75E
:1014280002B070BD704700BF00380140003C014069
:1014380000380240000002400369194201D001202F
:101448007047002070470AB18161704709048161C3
:101458007047436901EA030221EA030141EA0241B4
:1014680081617047054B5B69034200D1704710B535
:101478000446FFF7A7F8014B5C6110BD003C014032
:10148800002800F0E08170B582B00446036813F0CC
:10149800010F3BD09F4B9B6803F00C03042B2CD00F
:1014A8009C4B9B6803F00C03082B21D06368B3F5B1
:1014B800803F4FD0B3F5A02F52D0964B1A6822F434
:1014C80080321A601A6822F480221A606368002B3E
:1014D80050D0FFF7D5FB05468E4B1B6813F4003F31
:1014E80014D1FFF7CDFB401B6428F5D90320B1E1E7
:1014F800884B5B6813F4800FD8D0864B1B6813F4B5
:10150800003F03D06368002B00F09F81236813F02D
:10151800020F54D07F4B9B6813F00C0F3ED07D4BCD
:101528009B6803F00C03082B33D0E368002B68D0CA
:10153800794B01221A60FFF7A3FB0546754B1B6820
:1015480013F0020F54D1FFF79BFB401B0228F5D97B
:1015580003207FE16F4A136843F480331360B5E7D3
:101568006C4B1A6842F480221A601A6842F480327E
:101578001A60ABE7FFF784FB0546664B1B6813F45C
:10158800003FC3D0FFF77CFB401B6428F5D903203C
:1015980060E1604B5B6813F4800FC6D15D4B1B683C
:1015A80013F0020F03D0E368012B40F05081594A31
:1015B800136823F0F803216943EAC1031360236821
:1015C80013F0080F42D063696BB3534B0122C3F881
:1015D800802EFFF755FB05464E4B5B6F13F0020F4D
:1015E80034D1FFF74DFB401B0228F5D9032031E128
:1015F800484A136823F0F803216943EAC1031360DA
:10160800DDE7454B00221A60FFF73AFB0546414BE0
:101618001B6813F0020FD2D0FFF732FB401B0228E1
:10162800F5D9032016E13C4B0022C3F8802EFFF7C2
:1016380027FB0546374B5B6F13F0020F06D0FFF709
:101648001FFB401B0228F5D9032003E1236813F090
:10165800040F77D02F4B1B6C13F0805F33D100231E
:1016680001932C4B1A6C42F080521A641B6C03F0E5
:1016780080530193019B0125284B1B6813F4807F3D
:1016880023D0A368012B34D0052B38D0214B1A6FF7
:1016980022F001021A671A6F22F004021A67A3687F
:1016A800002B3DD0FFF7ECFA06461A4B1B6F13F0E0
:1016B800020F46D1FFF7E4FA801B41F288339842C3
:1016C800F3D90320C6E00025D6E7144A136843F48B
:1016D80080731360FFF7D4FA0646104B1B6813F4A7
:1016E800807FCED1FFF7CCFA801B0228F5D90320E2
:1016F800B0E0084A136F43F001031367CFE7054BC7
:101708001A6F42F004021A671A6F42F001021A6750
:10171800C5E700BF003802400000474200700040A3
:10172800FFF7AEFA0646524B1B6F13F0020F08D0B4
:10173800FFF7A6FA801B41F288339842F3D90320B9
:1017480088E0EDB9A369002B00F08380484A9268CD
:1017580002F00C02082A51D0022B17D0454B002268
:101768001A66FFF78DFA0446414B1B6813F0007F99
:1017780042D0FFF785FA001B0228F5D9032069E05B
:101788003B4A136C23F080531364DBE7394B002288
:101798001A66FFF775FA0546354B1B6813F0007F8C
:1017A80006D0FFF76DFA401B0228F5D9032051E057
:1017B800E369226A1343626A43EA8213A26A5208FF
:1017C800013A43EA0243E26A43EA0263284A536061
:1017D800284B01221A66FFF753FA0446244B1B686C
:1017E80013F0007F06D1FFF74BFA001B0228F5D94A
:1017F80003202FE000202DE000202BE0012B2BD030
:101808001B4B5B6803F48001E269914226D103F027
:101818003F02216A8A4223D1616A47F6C0721A40A0
:10182800B2EB811F1ED103F44031A26A5208013A7B
:10183800B1EB024F18D103F07063E26AB3EB026FA9
:1018480014D1002006E001207047012002E00120A9
:1018580000E0002002B070BD0120FBE70120F9E79D
:101868000120F7E70120F5E70120F3E70120F1E780
:10187800003802400000474208B5314B9B6803F02E
:101888000C03042B57D0082B57D12D4B5A6802F064
:101898003F025B6813F4800F2AD0294B5968C1F3C3
:1018A800881C4FEA4C11B1EB0C006EEB0E0E4FEAA0
:1018B8008E1343EA90638101091A63EB0E03DB0080
:1018C80043EA5173C90011EB0C0C43F100035902B0
:1018D80000234FEA4C2041EADC51FEF771FC184B1B
:1018E8005B68C3F3014301335B00B0FBF3F025E011
:1018F800134B5968C1F3881C4FEA4C11B1EB0C002B
:101908006EEB0E0E4FEA8E1343EA90638101091ABB
:1019180063EB0E03DB0043EA5173C90011EB0C0CB7
:1019280043F10003990200234FEA8C2041EA9C51BD
:10193800FEF746FCD3E7034800E0034808BD00BFB4
:101948000038024000127A000024F400002800F059
:101958009B8070B50D4604464F4B1B6803F0070388
:101968008B4208D2CBB24C4A1370136803F00703BA
:101978008B4240F08B80236813F0020F17D013F0CE
:10198800040F04D0454A936843F4E05393602368F6
:1019980013F0080F04D0414A936843F460439360FE
:1019A8003E4A936823F0F003A1680B4393602368D1
:1019B80013F0010F32D06368012B21D09A1E012A3F
:1019C80025D9364A126812F0020F61D033498A6865
:1019D80022F0030213438B60FFF752F906462F4BA0
:1019E8009B6803F00C036268B3EB820F16D0FFF715
:1019F80047F9801B41F288339842F0D9032042E02E
:101A0800264A126812F4003FE0D101203BE0234A45
:101A1800126812F0007FD9D1012034E01E4B1B68F8
:101A280003F00703AB4207D9EAB21B4B1A701B68D5
:101A380003F00703AB422DD1236813F0040F06D03F
:101A4800164A936823F4E053E1680B4393602368D4
:101A580013F0080F07D0114A936823F460432169F3
:101A680043EAC1039360FFF707FF0C4B9B68C3F37E
:101A780003130B4AD35CD8400A4B18600A4B18680A
:101A8800FFF7B2F8002070BD012070470120FAE787
:101A98000120F8E70120F6E7003C02400038024048
:101AA800243C00081800002020000020014B186882
:101AB800704700BF1800002008B5FFF7F7FF044B78
:101AC8009B68C3F38223034AD35CD84008BD00BF98
:101AD80000380240343C000808B5FFF7E7FF044B24
:101AE8009B68C3F34233034AD35CD84008BD00BFA8
:101AF80000380240343C000830B4036A23F0010384
:101B08000362036A4268846924F073040D682C43F5
:101B180023F0020C8B6843EA0C03104DA84203D053
:101B280005F58065A84205D123F00803CD682B434D
:101B380023F00403094DA84203D005F58065A842A7
:101B480005D122F440724D692A438D692A434260C7
:101B580084614A684263036230BC704700000140F8
:101B680030B4036A23F480730362036A4268C46969
:101B780024F0730C0C6844EA0C0523F400738C6899
:101B880043EA0423114CA04203D004F58064A04228
:101B980006D123F40063CC6843EA042323F480636A
:101BA8000A4CA04203D004F58064A04207D122F475
:101BB80040524C6942EA04128C6942EA04124260BB
:101BC800C5614A68C263036230BC704700000140C7
:101BD80030B4036A23F480530362036A4468C26919
:101BE80022F4E6420D6842EA052223F400538D6888
:101BF80043EA0533094DA84203D005F58065A8429C
:101C080004D124F480444D6944EA85144460C261D7
:101C18004A680264036230BC704700BF000001409C
:101C280010B4036A046A24F001040462846924F08D
:101C3800F00C4CEA021223F00A030B4382610362A0
:101C480010BC704710B4046A24F01004046284695C
:101C5800036A24F4704C4CEA023223F0A00343EAEE
:101C680001138261036210BC7047836823F070031C
:101C78000B4343F0070383607047000090F83D3042
:101C8800DBB2012B37D1022380F83D300268D368DC
:101C980043F00103D3600368194A934220D0B3F19B
:101CA800804F1DD0A2F57C42934219D002F5806284
:101CB800934215D002F58062934211D002F5784222
:101CC80093420DD002F57052934209D0A2F5943296
:101CD800934205D01A6842F001021A60002070474A
:101CE8009A6802F00702062A07D01A6842F0010231
:101CF8001A6000207047012070470020704700BF1D
:101D0800000001400268D36823F00103D360036830
:101D1800196A41F21112114208D1196A40F244427B
:101D2800114203D11A6822F001021A60012380F8D7
:101D38003D300020704770477047704770477047C4
:101D480010B5044603681A6912F0020F11D0DA6858
:101D580012F0020F0DD06FF002021A61012303770F
:101D680003689B6913F0030F70D0FFF7E6FF0023A9
:101D7800237723681A6912F0040F12D0DA6812F078
:101D8800040F0ED06FF004021A6102232377236830
:101D98009B6913F4407F5FD02046FFF7CEFF0023F6
:101DA800237723681A6912F0080F12D0DA6812F044
:101DB800080F0ED06FF008021A61042323772368F6
:101DC800DB6913F0030F4ED02046FFF7B6FF002360
:101DD800237723681A6912F0100F12D0DA6812F00C
:101DE800100F0ED06FF010021A61082323772368B2
:101DF800DB6913F4407F3DD02046FFF79EFF0023A8
:101E0800237723681A6912F0010F03D0DA6812F0F9
:101E1800010F36D123681A6912F0800F03D0DA68EF
:101E280012F0800F34D123681A6912F0400F03D0E2
:101E3800DA6812F0400F32D123681A6912F0200FC5
:101E480003D0DA6812F0200F30D110BDFFF774FF0D
:101E58002046FFF773FF8AE72046FFF76DFF20460D
:101E6800FFF76CFF9BE72046FFF766FF2046FFF76A
:101E780065FFACE72046FFF75FFF2046FFF75EFFF0
:101E8800BDE76FF001021A612046FEF7FBFBC1E7D0
:101E98006FF080021A61204600F0D5FAC3E76FF0B0
:101EA80040021A612046FFF74AFFC5E76FF020029B
:101EB8001A61204600F0C6FAC7E700000368304AF6
:101EC800904212D0B0F1804F0FD0A2F57C429042E0
:101ED8000BD002F58062904207D002F580629042F2
:101EE80003D002F57842904203D123F070034A6888
:101EF8001343234A90422AD0B0F1804F27D0A2F54D
:101F08007C42904223D002F5806290421FD002F5B5
:101F1800806290421BD002F57842904217D002F5B9
:101F28007052904213D002F5806290420FD002F5B1
:101F3800806290420BD0A2F59832904207D002F509
:101F48008062904203D002F58062904203D123F46C
:101F58004073CA68134323F080034A69134303603C
:101F68008B68C3620B688362054B984203D003F504
:101F78008063984201D10B69036301234361704771
:101F88000000014040B310B5044690F83D30F3B16D
:101F9800022384F83D30214651F8040BFFF78EFFE9
:101FA800012384F8463084F83E3084F83F3084F8C2
:101FB800403084F8413084F8423084F8433084F863
:101FC800443084F8453084F83D30002010BD80F856
:101FD8003C30FEF7D3FCDBE70120704740B310B577
:101FE800044690F83D30F3B1022384F83D30214691
:101FF80051F8040BFFF762FF012384F8463084F898
:102008003E3084F83F3084F8403084F8413084F81A
:10201800423084F8433084F8443084F8453084F8FA
:102028003D30002010BD80F83C30FFF784FEDBE730
:102038000120704730B4036A23F010030362036A77
:102048004468826922F4E6420D6842EA052223F0D8
:1020580020038D6843EA0513114DA84203D005F506
:102068008065A84206D123F08003CD6843EA0513B2
:1020780023F040030A4DA84203D005F58065A84225
:1020880007D124F440644D6944EA85048D6944EA23
:102098008504446082614A688263036230BC704789
:1020A8000000014038B590F83C30012B66D004465A
:1020B8000D46012380F83C300C2A5AD8DFE802F09C
:1020C800075959591B5959593059595944000068E9
:1020D800FFF712FD2268936943F0080393612268B1
:1020E800936923F0040393612268936929690B4378
:1020F800936100203EE00068FFF79CFF2268936927
:1021080043F4006393612268936923F480639361C5
:1021180022689369296943EA01239361002029E031
:102128000068FFF71DFD2268D36943F00803D361F7
:102138002268D36923F00403D3612268D36929692B
:102148000B43D361002015E00068FFF741FD2268CA
:10215800D36943F40063D3612268D36923F48063AD
:10216800D3612268D369296943EA0123D361002036
:1021780000E00120002384F83C3038BD0220FCE751
:1021880010B4846824F47F4C42EA03220A4342EAEA
:102198000C02826010BC704790F83C30012B78D05C
:1021A80010B50446012380F83C30022380F83D3006
:1021B8000268936823F47F4323F0770393600B68E6
:1021C800602B4CD029D8402B54D00CD9502B22D17D
:1021D800CA6849680068FFF723FD50212068FFF7A7
:1021E80044FD002005E0202B0DD009D9302B0AD062
:1021F8000120012384F83D30002384F83C3010BDD1
:102208000BB1102B05D119462068FFF72EFD0020D1
:10221800EFE70120EDE70120EBE7B3F5805F34D06D
:10222800B3F5005F0CD1CB684A6889680068FFF78E
:10223800A7FF2268936843F4804393600020D8E79F
:10224800702B24D1CB684A6889680068FFF798FF2B
:102258002268936843F0770393600020C9E7CA684F
:1022680049680068FFF7EEFC60212068FFF7FDFC75
:102278000020BEE7CA6849680068FFF7D1FC402122
:102288002068FFF7F2FC0020B3E70020B1E7012047
:10229800AFE70220704701F01F01012303FA01FC98
:1022A800036A23EA0C030362036A02FA01F10B438F
:1022B8000362704710B504460846002942D194F8D5
:1022C8003E30DBB2013B18BF0123002B6ED1002842
:1022D80051D1022384F83E30012201462068FFF7DD
:1022E800DAFF2368334A934203D002F580629342AF
:1022F80003D15A6C42F400425A6423682D4A93422F
:1023080049D0B3F1804F46D0A2F57C42934242D0E7
:1023180002F5806293423ED002F5806293423AD041
:1023280002F57842934236D002F57052934232D089
:10233800A2F5943293422ED01A6842F001021A6034
:10234800002032E0042908D008290DD094F8413043
:10235800DBB2013B18BF0123B7E794F83F30DBB28B
:10236800013B18BF0123B0E794F84030DBB2013BD2
:1023780018BF0123A9E7042805D0082807D002239D
:1023880084F84130A8E7022384F83F30A4E7022309
:1023980084F84030A0E79A6802F00702062A07D0BE
:1023A8001A6842F001021A60002010BD0120FCE703
:1023B8000020FAE70000014090F83C30012B3CD0A7
:1023C80010B4012380F83C30022380F83D300368C4
:1023D8005A689C6822F0700C0A6842EA0C025A603B
:1023E8000368174A93421AD0B3F1804F17D0A2F569
:1023F8007C42934213D002F5806293420FD002F5DB
:10240800806293420BD002F57842934207D002F5DE
:102418007052934203D0A2F59432934204D124F02F
:1024280080044A6814439C60012380F83D300023EF
:1024380080F83C30184610BC70470220704700BF37
:102448000000014070477047026802F10C0353E82E
:10245800003F23F0C0030C3242E800310029F3D1D9
:10246800202380F83D307047026802F10C0353E8DE
:10247800003F23F490730C3242E800310029F3D175
:10248800026802F1140353E8003F23F001031432F9
:1024980042E800310029F3D1036B012B05D020233A
:1024A80080F83E30002303637047026802F10C0392
:1024B80053E8003F23F010030C3242E800310029B2
:1024C800F3D1ECE790F83D30DBB2212B01D00220AC
:1024D80070478368B3F5805F17D0036A5A1C02629D
:1024E8001A7803685A60C38C9BB2013B9BB2C384C1
:1024F8004BB90268D36823F08003D3600268D368BD
:1025080043F04003D360002070470369002BE4D1F7
:10251800036A1B880268C3F308035360036A023323
:102528000362E0E738B504460268136923F44053B0
:10253800C1680B43136183680269134342691343FB
:10254800C2691A430168CB6823F4164323F00C03CD
:102558001343CB600268536923F4407381690B43CA
:1025680053610368314A934206D002F58062934270
:1025780002D0FFF7A1FA01E0FFF7AEFAE369B3F57D
:10258800004F29D00021031849411B1841F10001CF
:10259800C90041EA5371DB00181863684FEA8302E7
:1025A8004FEA937341F10001FDF70AFE204DA5FBA8
:1025B80000325109642303FB11031B013233A5FBCD
:1025C80003235B0903F0F00202EB011203F00F038F
:1025D800216813448B6038BD0023021843EB0301C4
:1025E800121841F10001C90041EA5271D2001018D5
:1025F80041F10001626892185B41FDF7E1FD0C4D65
:10260800A5FB00325109642303FB1103DB003233BD
:10261800A5FB03235B095A0002F4F87202EB0112CE
:1026280003F00703216813448B60D4E700100140CE
:102638001F85EB5158B310B5044690F83D300BB3E5
:10264800242384F83D302268D36823F40053D360F0
:102658002046FFF767FF2268136923F4904313614C
:102668002268536923F02A0353612268D36843F42C
:102678000053D36000202064202384F83D3084F880
:102688003E3010BD80F83C30FEF72EFAD8E7012026
:102698007047000038B590F83D30DBB2202B38D1B8
:1026A8000446002937D0002A37D090F83C30012B57
:1026B80035D0012380F83C3001628284C284002531
:1026C8000564212380F83D30436B1648D863636B5B
:1026D80015481864636B1548D864636B1D652068DA
:1026E8001346021D606BFEF735FC23686FF040024D
:1026F8001A6084F83C50226802F1140353E8003F42
:1027080043F08003143242E800310029F3D100205D
:1027180000E0022038BD0120FCE70120FAE7022092
:10272800F8E700BFBD27000825280008352800085D
:1027380010B5044603685A6990F83D30DBB2212B86
:102748000AD023685A6902F0400294F83E30DBB29E
:10275800222B19D0002010BD02F08002002AF0D0F0
:10276800226802F1140353E8003F23F08003143277
:1027780042E800310029F3D1606B08B1FEF71FFC75
:102788002046FFF761FEDCE7002AE3D0226802F169
:10279800140353E8003F23F04003143242E80031A9
:1027A8000029F3D1A06B08B1FEF709FC2046FFF71A
:1027B8005BFECFE708B50346806B1B681B6813F404
:1027C800807F1AD10023C384026802F1140353E8FE
:1027D800003F23F08003143242E800310029F3D18E
:1027E800026802F10C0353E8003F43F040030C3247
:1027F80042E800310029F3D108BDFEF771F8FBE784
:1028080008B50168CA6822F04002CA60202280F830
:102818003D20FEF765F8002008BD704708B5806BBD
:10282800FFF7FBFF08BD70477047704710B5846B12
:1028380023685A6994F83D30DBB2212B10D0236805
:102848005A6902F0400294F83E30DBB2222B11D0D4
:10285800236C43F0100323642046FFF7E6FF10BD06
:1028680002F08002002AEAD00023E3842046FFF722
:10287800EBFDE4E7002AEBD00023E3852046FFF7D1
:10288800F3FDE5E708B5806B0023C385C384FFF734
:10289800CCFF08BD704790F83E30DBB2222B67D1E1
:1028A8008368B3F5805F4DD0826AB3F5805F04D04A
:1028B800002B54D10369002B51D103685B68137056
:1028C800836A01338362C38D9BB2013B9BB2C3858C
:1028D800002B4FD100B583B00268D36823F02003E2
:1028E800D3600268D36823F48073D36002685369A5
:1028F80023F001035361202380F83E30036B012B42
:1029080033D100230363026802F10C0353E8003F4C
:1029180023F010030C3242E800310029F3D1036898
:102928001A6812F0100F06D0002201921A6801925C
:102938005B680193019B818DFFF7ACFF002003B01A
:102948005DF804FB0269002AAED1826A03685B68FD
:10295800C3F308031380836A02338362B3E703680F
:102968005B6803F07F031370AAE7FFF75CFFE5E7F6
:10297800022070470020704730B583B004460268D3
:102988001368D068516913F00F0505D113F0200FB3
:1029980002D010F0200F19D12DB111F0010119D179
:1029A80010F4907F16D1216B01297DD013F0800F90
:1029B80003D010F0800F40F0158113F0400F03D0C2
:1029C80010F0400F40F0128103B030BD2046FFF7F1
:1029D80062FFF9E713F0010F06D010F4807F03D0EF
:1029E800226C42F00102226413F0040F04D019B1E2
:1029F800226C42F00202226413F0020F04D019B1D3
:102A0800226C42F00402226413F0080F07D010F081
:102A1800200F00D119B1226C42F008022264226C06
:102A2800002AD1D013F0200F02D010F0200F29D1A6
:102A380023685B6903F04003226C12F0080F00D191
:102A480063B32046FFF710FD23685B6913F0400F5E
:102A580020D0226802F1140353E8003F23F040031A
:102A6800143242E800310029F3D1A36B73B1614AF3
:102A78001A65A06BFEF7EDFA0028A5D0A06B036DD0
:102A88009847A1E72046FFF706FFD1E72046FFF762
:102A9800CCFE99E72046FFF7C8FE95E72046FFF7EA
:102AA800C4FE002323648FE713F0100F3FF47EAFBA
:102AB80010F0100F3FF47AAF0023019313680193CD
:102AC80053680193019B536913F0400F50D0A26BD8
:102AD80013685B689BB2002B3FF476AFA18D9942D7
:102AE8007FF672AFE385D369B3F5807F37D022686C
:102AF80002F10C0353E8003F23F480730C3242E8E0
:102B080000310029F3D1226802F1140353E8003F91
:102B180023F00103143242E800310029F3D122687E
:102B280002F1140353E8003F23F04003143242E853
:102B380000310029F3D1202384F83E300023236399
:102B4800226802F10C0353E8003F23F010030C3213
:102B580042E800310029F3D1A06BFEF730FAA18DCD
:102B6800E38D9BB2C91A89B22046FFF793FE2BE783
:102B7800A18DE38D9BB2C91A89B2E38D9BB2002B5C
:102B88003FF422AF00293FF41FAF226802F10C0383
:102B980053E8003F23F490730C3242E800300028D9
:102BA800F3D1226802F1140353E8003F23F0010334
:102BB800143242E800300028F3D1202384F83E3054
:102BC80000232363226802F10C0353E8003F23F03B
:102BD80010030C3242E800300028F3D12046FFF7FA
:102BE80059FEF1E62046FFF76DFCEDE62046FFF7BB
:102BF80007FEE9E68D28000808B5806B036B012BFA
:102C080002D0FFF711FE08BD818D4908FFF742FE8B
:102C1800F9E708B50346806B1B681B6813F4807FCF
:102C28002BD10023C385026802F10C0353E8003F4F
:102C380023F480730C3242E800310029F3D1026892
:102C480002F1140353E8003F23F00103143242E871
:102C580000310029F3D1026802F1140353E8003F60
:102C680023F04003143242E800310029F3D1202335
:102C780080F83E30036B012B05D0036B012B0FD07E
:102C8800FFF7D1FD08BD026802F10C0353E8003FCD
:102C980023F010030C3242E800310029F3D1ECE7AD
:102CA800818DFFF7F7FDEDE730B583B00446134695
:102CB8008162828500250564222280F83E20826B8D
:102CC8002048D063A26B20481064A26B1F48D064D0
:102CD800A26B156520680A46011DA06BFEF73AF93C
:102CE800019523681A6801925B680193019B84F837
:102CF8003C5023695BB1226802F10C0353E8003FA2
:102D080043F480730C3242E800310029F3D1226881
:102D180002F1140353E8003F43F00103143242E880
:102D280000310029F3D1226802F1140353E8003F6F
:102D380043F04003143242E800310029F3D1002067
:102D480003B030BD1B2C0008012C000835280008F2
:102D580008B590F83E30DBB2202B0DD171B17AB1B5
:102D680090F83C30012B0DD0012380F83C30002333
:102D78000363FFF799FF00E0022008BD0120FCE78C
:102D88000120FAE70220F8E7B0F5FA7F01D8002021
:102D9800704701207047052801D001307047002096
:102DA8007047000008B5084B1B6803B108BD074809
:102DB80000F060FA0649087001220648FFF76AFC2D
:102DC80000F014FAF2E700BF7005002000000020B0
:102DD8006F050020C806002038B50278A2F130033C
:102DE800DBB2092B00D938BD303A642402FB04F465
:102DF800034D00212846FFF75DFA2B685C63F2E774
:102E0800780500200378283B322B00F2EC81DFE8BC
:102E180013F0CD01EA01EA01EA01EA01D701E10173
:102E2800C2014B01570162016D01780183018D01D7
:102E38009801A301AE01EA01EA01EA01EA01EA0107
:102E4800B801EA0133003E00490054005F006A00FF
:102E5800750080008A0094009F00AA00B500BF009A
:102E6800CA00D400DF00EA00F500FF0009011401E0
:102E78001F012A0135014001904B00221A600122EE
:102E88005A6009229A60DA601A615A6170478B4B5E
:102E980001221A6000225A609A60DA6009221A61D7
:102EA8005A617047854B0121196000225A60996068
:102EB800DA6009221A615A617047804B01221A6050
:102EC80000225A609A600922DA601A615A617047D2
:102ED8007A4B00221A6001225A6009229A60DA604D
:102EE8001A615A617047754B00221A605A600121B5
:102EF8009960DA6009221A615A6170476F4B0122A2
:102F08001A605A6000229A600922DA601A615A61CE
:102F180070476A4B00221A605A609A60DA60092288
:102F28001A615A617047654B00221A605A6009227B
:102F38009A60DA601A615A617047604B00221A6021
:102F480001225A609A60DA6009221A615A61704750
:102F58005A4B01221A60002159609A600922DA60EE
:102F68001A615A617047554B00221A600121596055
:102F78009A60DA6009221A615A6170474F4B012240
:102F88001A605A6009229A60DA601A615A617047B9
:102F98004A4B01221A6000225A6009229A60DA60BC
:102FA8001A615A617047454B01221A605A609A604B
:102FB8000922DA601A615A617047404B00221A6090
:102FC800012159609960DA6009221A615A617047D3
:102FD8003A4B01221A605A6000219960DA6009228E
:102FE8001A615A617047354B00221A6001215960F5
:102FF8009A600922DA601A615A6170472F4B0022E1
:103008001A605A609A600922DA601A615A61704738
:103018002A4B01221A6009225A609A60DA601A6102
:103028005A617047254B00221A605A6001229A6043
:103038000922DA601A615A617047204B00221A602F
:103048005A609A600122DA6009221A615A6170474F
:103058001A4B00221A6001225A609A600922DA602B
:103068001A615A617047154B01221A600021596094
:103078009960DA6009221A615A6170470F4B012280
:103088001A60002159609A60DA6009221A615A614F
:1030980070470A4B01221A605A6000229A60DA606F
:1030A80009221A615A617047044B01221A605A605A
:1030B8009A60DA601A6109225A617047000000209C
:1030C800494B00221A6001225A609A60DA601A613C
:1030D80009225A617047444B00221A605A60012243
:1030E8009A60DA601A6109225A6170473E4B0022E1
:1030F8001A605A609A600122DA601A6109225A61DC
:103108007047394B00221A605A609A60DA600122CF
:103118001A6109225A617047334B00221A605A60BB
:103128009A60DA601A6109225A6170472E4B0122AF
:103138001A6000225A609A60DA601A6109225A619C
:103148007047294B01221A605A609A600022DA609F
:103158001A6109225A617047234B01221A605A608A
:103168009A60DA6000221A6109225A6170471E4B80
:1031780001221A605A609A60DA601A6109225A615B
:103188007047194B00221A605A6001219960D96072
:103198001A615A617047144B0121196000225A6064
:1031A8009A60D9601A6109225A6170470E4B012250
:1031B8001A60002159609A60DA6019615A61704793
:1031C800094B0121196000225A609A60DA601A617D
:1031D80059617047044B0021196001225A609960B7
:1031E800DA6019615A61704700000020002304E08A
:1031F800034A092142F823100133052BF8DD7047F3
:103208000000002038B5002411E0184D4FF480610B
:103218002846FEF71EF9C820FDF738FD4FF48061F7
:103228002846FEF716F9C820FDF730FD0134052CB5
:1032380019DC0F4B53F82430002BE6D0012BF5D1C5
:103248000A4D4FF480612846FEF703F94FF41670D3
:10325800FDF71CFD4FF480612846FEF7FAF8C820F8
:10326800FDF714FDE2E7FFF7C1FF38BD0014024087
:103278000000002003681BB94268012A00F0CC80D6
:10328800012B00F0DB80012B00F0EE80012B00F019
:1032980001811BB94268092A00F012812BB94268E2
:1032A8001AB98268012A00F01D81012B00F02881DB
:1032B8004BB942683AB982682AB9C2681AB9026930
:1032C800092A00F033812BB942681AB98268092AA1
:1032D80000F032811BB94268012A00F03B81012BC2
:1032E80000F04A811BB94268012A00F05B81012B7A
:1032F80000F06A81012B00F07D81012B00F09081A4
:103308001BB94268012A00F0A181012B00F0B081AD
:103318001BB94268012A00F0C1813BB942682AB949
:1033280082681AB9C268092A00F0CA81012B00F024
:10333800D1812BB942681AB98268012A00F0E0816C
:103348003BB942682AB982681AB9C268012A00F0F2
:10335800E5811BB94268012A00F0EA81012B00F0DF
:10336800F981012B00F00C82012B00F01F82012B48
:1033780000F032821BB94268012A00F043822BB95F
:1033880042681AB98268012A00F04E823BB9426845
:103398002AB982681AB9C268012A00F053824BB967
:1033A80042683AB982682AB9C2681AB90269012A18
:1033B80000F052825BB942684AB982683AB9C26879
:1033C8002AB902691AB94269092A00F00183012B56
:1033D80000F04882012B00F05B82012B00F06E8226
:1033E800012B00F081822BB942681AB98268012A40
:1033F80000F09082012B00F09B82012B00F0AE823E
:10340800012B00F0C182002B40F0E4824368012BBD
:1034180000F0D082002070478268092A7FF430AF1C
:10342800C268092A7FF42CAF0269092A7FF428AF01
:103438004269092A7FF424AF412070474268002A74
:103448007FF421AF8268002A7FF41DAFC268002A8A
:103458007FF419AF0269092A7FF415AF4269092A76
:103468007FF411AF422070474268002A7FF40EAF04
:103478008268012A7FF40AAFC268002A7FF406AF87
:103488000269092A7FF402AF4269092A7FF4FEAE75
:10349800432070474268002A7FF4FBAE8268002A06
:1034A8007FF4F7AEC268092A7FF4F3AE0269092AED
:1034B8007FF4EFAE4269092A7FF4EBAE44207047EF
:1034C8008268092A7FF4EAAEC268092A7FF4E6AE68
:1034D8000269092A7FF4E2AE4269092A7FF4DEAE66
:1034E80045207047C268002A7FF4DFAE0269092AC6
:1034F8007FF4DBAE4269092A7FF4D7AE46207047D5
:103508004268012A7FF4D4AE8268002A7FF4D0AEE4
:10351800C268092A7FF4CCAE0269092A7FF4C8AED2
:103528004269092A7FF4C4AE472070474269092AD4
:103538007FF4C9AE48207047C268092A7FF4CAAE32
:103548000269092A7FF4C6AE4269092A7FF4C2AE2D
:10355800492070478268012A7FF4C1AEC268012AF7
:103568007FF4BDAE0269092A7FF4B9AE4269092A1F
:103578007FF4B5AE4A2070474268002A7FF4B2AEA5
:103588008268012A7FF4AEAEC268092A7FF4AAAE27
:103598000269092A7FF4A6AE4269092A7FF4A2AE1D
:1035A8004B2070478268002A7FF4A1AEC268002AC7
:1035B8007FF49DAE0269092A7FF499AE4269092A0F
:1035C8007FF495AE4C2070474268012A7FF492AE92
:1035D8008268092A7FF48EAEC268092A7FF48AAE0F
:1035E8000269092A7FF486AE4269092A7FF482AE0D
:1035F8004D2070474268002A7FF47FAE8268092A0E
:103608007FF47BAEC268092A7FF477AE0269092A83
:103618007FF473AE4269092A7FF46FAE4E2070477B
:103628004268012A7FF46CAE8268012A7FF468AE92
:10363800C268092A7FF464AE0269092A7FF460AE81
:103648004269092A7FF45CAE4F2070478268012ADC
:103658007FF45BAEC268002A7FF457AE0269092A7C
:103668007FF453AE4269092A7FF44FAE5020704769
:103678004268012A7FF44CAE8268002A7FF448AE83
:10368800C268012A7FF444AE0269092A7FF440AE79
:103698004269092A7FF43CAE512070478268002AAB
:1036A8007FF43BAEC268092A7FF437AE0269092A63
:1036B8007FF433AE4269092A7FF42FAE5220704757
:1036C8000269092A7FF432AE4269092A7FF42EAED4
:1036D800532070474268092A7FF42BAE8268092A72
:1036E8007FF427AEC268092A7FF423AE0269092A4B
:1036F8007FF41FAE4269092A7FF41BAE542070473D
:10370800C268092A7FF41CAE0269092A7FF418AE40
:103718004269092A7FF414AE552070470269092AC4
:103728007FF417AE4269092A7FF413AE562070471A
:103738008268012A7FF412AEC268092A7FF40EAEAD
:103748000269092A7FF40AAE4269092A7FF406AEA3
:10375800572070474268002A7FF403AE8268002A27
:103768007FF4FFADC268012A7FF4FBAD0269092A24
:103778007FF4F7AD4269092A7FF4F3AD582070470A
:103788004268002A7FF4F0AD8268012A7FF4ECAD2C
:10379800C268012A7FF4E8AD0269092A7FF4E4AD22
:1037A8004269092A7FF4E0AD592070474268012A2E
:1037B8007FF4DDAD8268002A7FF4D9ADC268002AA3
:1037C8007FF4D5AD0269092A7FF4D1AD4269092A8F
:1037D8007FF4CDAD5A2070474268012A7FF4CAAD04
:1037E8008268012A7FF4C6ADC268012A7FF4C2AD9F
:1037F8000269012A7FF4BEAD4269092A7FF4BAAD95
:10380800302070478268012A7FF4B9ADC268012A66
:103818007FF4B5AD0269012A7FF4B1AD4269092A86
:103828007FF4ADAD31207047C268012A7FF4AEAD98
:103838000269012A7FF4AAAD4269092A7FF4A6AD7C
:10384800322070470269012A7FF4A9AD4269092A2A
:103858007FF4A5AD332070474269092A7FF4AAADE9
:10386800342070474268002A7FF4B4AD8268002A89
:103878007FF4B0ADC268002A7FF4ACAD0269002ABB
:103888007FF4A8AD4269092A7FF4A4AD36207047B9
:103898004268012A7FF4A1AD8268002A7FF49DADB9
:1038A800C268002A7FF499AD0269002A7FF495ADB9
:1038B8004269092A7FF491AD372070474268012A8E
:1038C8007FF48EAD8268012A7FF48AADC268002A2F
:1038D8007FF486AD0269002A7FF482AD4269092A25
:1038E8007FF47EAD382070474268012A7FF47BADB3
:1038F8008268012A7FF477ADC268012A7FF473AD2C
:103908000269002A7FF46FAD4269092A7FF46BAD22
:1039180039207047C268012A7FF46CAD0269002A19
:103928007FF468AD4269002A7FF464AD3F20704798
:103938004268002A7FF461AD8268002A7FF45DAD99
:10394800C268012A7FF459AD0269002A7FF455AD97
:103958004269092A7FF451AD2F2070474268002A36
:103968007FF44EAD8268012A7FF44AADC268012A0D
:103978007FF446AD0269002A7FF442AD4269012A0C
:103988007FF43EAD282070474268002A7FF43BADA3
:103998008268002A7FF437ADC268002A7FF433AD0D
:1039A8000269002A7FF42FAD4269012A7FF42BAD0A
:1039B8002D20704783687BB9C368012B01D0002094
:1039C8007047036953B94369012B09D00020704738
:1039D800352070470020704700207047002070474E
:1039E8002E207047DFF834D00D480E490E4A0023C8
:1039F80002E0D458C4500433C4188C42F9D30B4A9B
:103A08000B4C002301E013600432A242FBD3FCF705
:103A18007BFF00F011F8FCF7B3FE704700000220AE
:103A280000000020540400205C3C000854040020DE
:103A380014070020FEE7000070B50D4E0D4D761BF3
:103A4800B61006D0002455F8043B01349847A64226
:103A5800F9D1094E094D761B00F0D4F8B61006D0FE
:103A6800002455F8043B01349847A642F9D170BDAB
:103A7800503C0008503C0008583C0008503C0008E6
:103A8800830730B548D0541E002A3FD0CAB2034637
:103A980001E0013C3AD303F8012B9D07F9D1032C2F
:103AA8002DD9CDB245EA05250F2C45EA054536D96D
:103AB800A4F1100222F00F0C03F1200EE6444FEAA5
:103AC800121C03F1100242E9045542E90255103272
:103AD8007245F8D10CF1010214F00C0F03EB02123D
:103AE80004F00F0C13D0ACF1040323F003030433E8
:103AF800134442F8045B9342FBD10CF003042CB14D
:103B0800CAB21C4403F8012B9C42FBD130BD644669
:103B18001346002CF4D1F9E703461446BFE71A46CA
:103B2800A446E0E7024B13B1024800F005B870471D
:103B3800000000004D3B0008002301461A461846C5
:103B480000F01AB838B5084B084D5B1B9C1007D01D
:103B5800043B1D44013C55F804399847002CF9D121
:103B6800BDE8384000F054B85C3C0008583C0008F8
:103B7800704700BF704700BF2DE9F047DFF87CA011
:103B88000646DAF8000098460F469146FFF7F0FF20
:103B98001B4B1B68D3F8484124B365681F2D26DCEE
:103BA8005EB96B1C0235DAF80000636044F82570D2
:103BB800FFF7E0FF0020BDE8F08704EB8501012353
:103BC800C1F88890D4F88821AB401A43022EC4F873
:103BD8008821C1F80881E4D1D4F88C211343C4F8B2
:103BE8008C31DEE703F5A674C3F84841D5E7DAF867
:103BF8000000FFF7BFFF4FF0FF30DCE75004002064
:103C0800443C0008F8B500BFF8BC08BC9E467047A5
:0C3C1800F8B500BFF8BC08BC9E46704721
:103C24000000000000000000010203040607080968
:103C3400000000000102030400061016000610161E
:043C44002800002034
:083C4800B0C5FF7F0100000080
:083C50002D3B0008AD01000846
:043C580089010008D6
:103C5C000900000009000000090000000900000034
:103C6C0009000000090000000024F400010000001D
:103C7C0010000000000000000000000014030020F1
:103C8C007C030020E4030020000000000000000082
:103C9C000000000000000000000000000000000018
:103CAC000000000000000000000000000000000008
:103CBC0000000000000000000000000000000000F8
:103CCC0000000000000000000000000000000000E8
:103CDC0000000000000000000000000000000000D8
:103CEC0000000000000000000000000000000000C8
:103CFC0000000000000000000000000000000000B8
:103D0C0000000000000000000000000000000000A7
:103D1C000000000000000000000000000000000097
:103D2C0001000000000000000E33CDAB34126DE634
:103D3C00ECDE05000B00000000000000000000009D
:103D4C000000000000000000000000000000000067
:103D5C000000000000000000000000000000000057
:103D6C000000000000000000000000000000000047
:103D7C000000000000000000000000000000000037
:0440AC0010070020D9
:04000005080039EDC9
:00000001FF
